:0400000080312B28F8
:100008007E14803120007F08F1008B1A0B1D2728F1
:100018007A08031D1128013012280030F0007008FA
:10002800FA007A0C2200031C0F1103180F158331F4
:100038009D23803183312723003020008D19013022
:10004800FB0095010B117108FF007E10090080313B
:100058002D2823308400853085003C308600003010
:100068008700123085316525FA01FB01CE01CF01E9
:10007800D001D101D201D301D401D501D6017E101E
:1000880020008431902CF20020004E08031D6A28BD
:100098004F087206031D562850087206031D56287D
:1000A8000030080052087206031D602856087206C0
:1000B800031D60280030080051087206031D6A28D5
:1000C80054087206031D6A28003008004F08031DF3
:1000D80081284E087206031D772850087206031DF2
:1000E80077280130080052087206031D8128550838
:1000F8007206031D8128013008005008031DA2283C
:100108004E087206031D8E284F087206031D8E289E
:100118000230080052087206031D98285408720617
:10012800031D98280230080053087206031DA228F0
:1001380056087206031DA228023008005108031D44
:10014800B9284E087206031DAF2854087206031D0D
:10015800AF280330080052087206031DB928530857
:100168007206031DB928033008005208031DE4284D
:100178004E087206031DC62856087206031DC628B7
:10018800043008004F087206031DD028550872066F
:10019800031DD0280430080050087206031DDA2811
:1001A80054087206031DDA28043008005108720644
:1001B800031DE42853087206031DE42804300800D0
:1001C8005308031DFB2850087206031DF128560822
:1001D8007206031DF1280530080051087206031D38
:1001E800FB2852087206031DFB2805300800540836
:1001F800031D1C294E087206031D082951087206A2
:10020800031D08290630080050087206031D12292C
:1002180052087206031D1229063008005508720696
:10022800031D1C2956087206031D1C2906300800E8
:100238005508031D33294F087206031D2929520842
:100248007206031D29290730080054087206031D89
:10025800332956087206031D33290730080056084B
:10026800031D54294E087206031D402952087206C0
:10027800031D40290830080050087206031D4A294A
:1002880053087206031D4A290830080054087206EC
:10029800031D542955087206031D54290830080007
:1002A80009300800F5010930750203189629750808
:1002B800013E4E3E8600870175084E3E840085014A
:1002C80000080106031D8E297508023E4E3E860071
:1002D800870175084E3E8400850100080106031D4C
:1002E8008E2975084E3E860087010103031D81296A
:1002F8000A30F2000030F300080075084E3E860010
:10030800870102300106031D8E291430F2000030E7
:10031800F30008000330F4007408F507093075028B
:10032800031C5B29F601033076020318D6297608E8
:10033800033E4E3E8600870176084E3E84008501C6
:1003480000080106031DCE297608063E4E3E8600AB
:10035800870176084E3E8400850100080106031DCA
:10036800CE2976084E3E860087010103031DC12968
:100378000A30F2000030F300080076084E3E86008E
:10038800870102300106031DCE291430F200003027
:10039800F30008000130F4007408F6070330760211
:1003A800031C9B29200052084E06031DF0295608FD
:1003B8004E06031DF0294E03031DE7290A30F200FB
:1003C8000030F300080002304E06031DF0291430F7
:1003D800F2000030F300080050085206031D092AF5
:1003E80050085406031D092A5003031D002A0A3029
:1003F800F2000030F300080002305006031D092AFD
:100408001430F2000030F3000800F201F301080094
:100418002000B6007603031D442A453086000030CC
:10042800870020308400003085000930F70016006E
:100438001A00F70B1B2AB30109303302031808000E
:100448003308203E8600870101084E3E860087015A
:100458000108031D3E2A3308203E86008701010853
:10046800F700F8017708F2007808F30036088531BC
:100478005B2508000130F70077082000B307202A21
:1004880002307606031D08003603FF3A033EF700E4
:100498007708B2003608803147208231F7007708A4
:1004A8002000B400093034020318652A3408F70024
:1004B800F8017708F2007808F300360885315B25E3
:1004C800080020003208803147208231F700770881
:1004D8002000B4000930340203187D2A3408F700DC
:1004E800F8017708F2007808F300360885315B25B3
:1004F80008003C3086000030870029308400003036
:1005080085000930F70016001A00F70B872A20002B
:10051800B50109303502031808003508293E860060
:10052800870101084E3E860087010108031DAB2A9A
:100538003508293E860087010108F700F801770889
:10054800F2007808F300360885315B250800013091
:10055800F70077082000B5078D2A20004E03031DF9
:10056800B72A22008F16023020004E06031DBE2A2D
:1005780022008F1220004F03031DC42A22000F17E8
:10058800023020004F06031DCB2A22000F13200043
:100598005003031DD12A22008F1702302000500675
:1005A800031DD82A22008F1320005103031DDE2AC1
:1005B80022000E17023020005106031DE52A2200F2
:1005C8000E1320005203031DEB2A22008E1702305F
:1005D80020005206031DF22A22008E132000530326
:1005E800031DF82A22000F16023020005306031DAF
:1005F800FF2A22000F1220005403031D052B22009E
:100608008F15023020005406031D0C2B22008F1179
:1006180020005503031D122B22000E160230200065
:100628005506031D192B22000E1220005603031D28
:100638001F2B22008E16023020005606031D0800CC
:1006480022008E12080020004E03031D2D2B2200CD
:100658008F16023020004E06031D342B22008F1205
:1006680020004F03031D3A2B22000F1702302000F1
:100678004F06031D412B22000F1320005003031DBA
:10068800472B22008F17023020005006031D4E2BE7
:1006980022008F1320005103031D542B22000E1734
:1006A800023020005106031D5B2B22000E13200090
:1006B8005203031D612B22008E17023020005206C0
:1006C800031D682B22008E1320005303031D6E2B7D
:1006D80022000F16023020005306031D752B22003E
:1006E8000F1220005403031D7B2B22008F150230AC
:1006F80020005406031D822B22008F112000550371
:10070800031D882B22000E16023020005506031DFB
:100718008F2B22000E1220005603031D952B22005A
:100728008E16023020005606031D080022008E1285
:10073800080020004E08031DA92B22000F1DA72B1F
:1007480022008F16A92B22008F1220004F08031DAC
:10075800B52B22000F1DB32B22000F17B52B22003B
:100768000F1320005008031DC12B22000F1DBF2BA3
:1007780022008F17C12B22008F1320005108031D60
:10078800CD2B22000F1DCB2B22000E17CD2B2200C4
:100798000E1320005208031DD92B22000F1DD72B42
:1007A80022008E17D92B22008E1320005308031D18
:1007B800E52B22000F1DE32B22000F16E52B22004C
:1007C8000F1220005408031DF12B22000F1DEF2BE0
:1007D80022008F15F12B22008F1120005508031DD0
:1007E800FD2B22000F1DFB2B22000E16FD2B2200D5
:1007F8000E1220005608031D080022000F1D072CAA
:1008080022008E16080022008E1208002000BA006E
:100818003A08013EF9007908B8003A03FF3A023E67
:10082800F9007908B9003A080319222C3708F900A9
:100838007908F600390882310C2284318131562139
:10084800843172087304031D080085310B25843137
:10085800013A031D08007B08031D352C8531352519
:1008680008002000380884315D2484318231B122A7
:10087800843181315621843172087304031D0800C4
:1008880085310B258431003A031908007B08031DC4
:10089800502C85313525080020003708F9007908E3
:1008A800F600390882310C2284318231B122843138
:1008B800222C2000A0008431C2248431093A031D6F
:1008C800692C7B08031908005F2C8431C224843109
:1008D800F60076082000A2000930220603195F2CD2
:1008E8002208F600F7017608F2007708F300853150
:1008F80050258431F80078082000A1002108031948
:100908005F2C2208F600F7017608F2007708F3005A
:10091800200885315B250800853144258431230072
:100928008C01FF3021008C0023008D01FF30210055
:100938008D0022000F110F3021008E0023008F013F
:10094800033021008F008531352584317B08031958
:10095800A72C20008D1ABA2C0230BB003B08B70028
:100968000D0E013984310A248431BE2C01308431C2
:10097800E92484317B03031DAA2CBE2C20000C1C07
:10098800C72C003008008C1CCB2C013008008C1DB3
:10099800CF2C023008000E1DD32C033008000C1D8C
:1009A800D72C043008000C1EDB2C053008008E1CE8
:1009B800DF2C063008000E1CE32C073008008C1EC4
:1009C800E72C08300800093008002000A300813116
:1009D8005621843172087304031D080085310B25E4
:1009E8008431013A031D08007B08031DFE2C853164
:1009F800352508002000230884315D248431200037
:100A08002303FF3A033EF9007908A300EB2CF30116
:100A1800093073020318212D73084E3E86008701A2
:100A28000108031D192D013008000130F200720879
:100A3800F30709307302031C102D0030080004343A
:100A480001340334003402340634083405340734DE
:100A580000340834043402340634013403340534D1
:100A68000034F301093073020318080073084E3E7E
:100A78008600870181010130F2007208F307362DE4
:100A88002100951295111515951415102000950142
:100A98000B118B168B17080072084E3E86008701D3
:100AA8000108031D592D0130080000300800F50029
:100AB8007508F40072084E3E8600870174088100AC
:0E0AC8000800FE0012001E00FE0B662D00341A
:020000040001F9
:04000E00E2C9FFDC68
:00000001FF
